{
  "_format": "hh-sol-artifact-1",
  "contractName": "HurricaneCash",
  "sourceName": "contracts/HurricaneCash.sol",
  "abi": [
    {
      "inputs": [
        {
          "internalType": "address",
          "name": "_recipient",
          "type": "address"
        },
        {
          "internalType": "bytes32",
          "name": "_phrase",
          "type": "bytes32"
        },
        {
          "internalType": "bytes",
          "name": "_signature",
          "type": "bytes"
        },
        {
          "internalType": "bytes32[]",
          "name": "_proof",
          "type": "bytes32[]"
        }
      ],
      "name": "claim",
      "outputs": [],
      "stateMutability": "nonpayable",
      "type": "function"
    },
    {
      "inputs": [
        {
          "internalType": "bytes32",
          "name": "_phrase",
          "type": "bytes32"
        },
        {
          "internalType": "address",
          "name": "_sender",
          "type": "address"
        },
        {
          "internalType": "uint256",
          "name": "_amount",
          "type": "uint256"
        },
        {
          "internalType": "bytes32",
          "name": "_root",
          "type": "bytes32"
        }
      ],
      "name": "deposit",
      "outputs": [],
      "stateMutability": "payable",
      "type": "function"
    },
    {
      "inputs": [
        {
          "internalType": "uint256",
          "name": "_amount",
          "type": "uint256"
        },
        {
          "internalType": "address",
          "name": "_sender",
          "type": "address"
        }
      ],
      "name": "getHash",
      "outputs": [
        {
          "internalType": "bytes32",
          "name": "",
          "type": "bytes32"
        }
      ],
      "stateMutability": "view",
      "type": "function"
    },
    {
      "inputs": [],
      "name": "getHurricaneHash",
      "outputs": [
        {
          "internalType": "bytes32",
          "name": "hash",
          "type": "bytes32"
        }
      ],
      "stateMutability": "view",
      "type": "function"
    },
    {
      "inputs": [],
      "name": "getPhrases",
      "outputs": [
        {
          "internalType": "bytes32[]",
          "name": "result",
          "type": "bytes32[]"
        }
      ],
      "stateMutability": "view",
      "type": "function"
    },
    {
      "inputs": [],
      "name": "getPhrasesDetails",
      "outputs": [
        {
          "components": [
            {
              "internalType": "address",
              "name": "sender",
              "type": "address"
            },
            {
              "internalType": "uint256",
              "name": "amount",
              "type": "uint256"
            },
            {
              "internalType": "uint256",
              "name": "timeStamp",
              "type": "uint256"
            }
          ],
          "internalType": "struct HurricaneCash.Detail[]",
          "name": "",
          "type": "tuple[]"
        }
      ],
      "stateMutability": "view",
      "type": "function"
    },
    {
      "inputs": [
        {
          "internalType": "uint256",
          "name": "_amount",
          "type": "uint256"
        },
        {
          "internalType": "address",
          "name": "_sender",
          "type": "address"
        }
      ],
      "name": "getSignedHash",
      "outputs": [
        {
          "internalType": "bytes32",
          "name": "",
          "type": "bytes32"
        }
      ],
      "stateMutability": "view",
      "type": "function"
    },
    {
      "inputs": [
        {
          "internalType": "uint256",
          "name": "",
          "type": "uint256"
        }
      ],
      "name": "phrases",
      "outputs": [
        {
          "internalType": "bytes32",
          "name": "",
          "type": "bytes32"
        }
      ],
      "stateMutability": "view",
      "type": "function"
    },
    {
      "inputs": [
        {
          "internalType": "bytes32",
          "name": "_phrase",
          "type": "bytes32"
        },
        {
          "internalType": "bytes32[]",
          "name": "_proof",
          "type": "bytes32[]"
        }
      ],
      "name": "verifyPhrase",
      "outputs": [
        {
          "internalType": "bool",
          "name": "result",
          "type": "bool"
        }
      ],
      "stateMutability": "view",
      "type": "function"
    },
    {
      "inputs": [
        {
          "internalType": "uint256",
          "name": "_amount",
          "type": "uint256"
        },
        {
          "internalType": "address",
          "name": "_sender",
          "type": "address"
        },
        {
          "internalType": "bytes",
          "name": "_signature",
          "type": "bytes"
        }
      ],
      "name": "verifySignature",
      "outputs": [
        {
          "internalType": "bool",
          "name": "result",
          "type": "bool"
        }
      ],
      "stateMutability": "view",
      "type": "function"
    },
    {
      "stateMutability": "payable",
      "type": "receive"
    }
  ],
  "bytecode": "0x608060405234801561001057600080fd5b50611eb7806100206000396000f3fe6080604052600436106100955760003560e01c8063b15a2d1c11610059578063b15a2d1c1461019f578063c4b21353146101ca578063d338105314610207578063df2a210e14610244578063fb815d841461026f5761009c565b80634667dc6f146100a157806360f06a44146100cc57806388a22213146100e85780639d0af00114610125578063a4aba3d1146101625761009c565b3661009c57005b600080fd5b3480156100ad57600080fd5b506100b6610298565b6040516100c39190611071565b60405180910390f35b6100e660048036038101906100e19190611135565b610433565b005b3480156100f457600080fd5b5061010f600480360381019061010a919061119c565b6105ef565b60405161011c91906111eb565b60405180910390f35b34801561013157600080fd5b5061014c6004803603810190610147919061119c565b61060b565b60405161015991906111eb565b60405180910390f35b34801561016e57600080fd5b506101896004803603810190610184919061134c565b610640565b60405161019691906113d6565b60405180910390f35b3480156101ab57600080fd5b506101b461069a565b6040516101c191906111eb565b60405180910390f35b3480156101d657600080fd5b506101f160048036038101906101ec9190611451565b6106c6565b6040516101fe91906113d6565b60405180910390f35b34801561021357600080fd5b5061022e600480360381019061022991906114b1565b61071f565b60405161023b91906111eb565b60405180910390f35b34801561025057600080fd5b50610259610743565b604051610266919061159c565b60405180910390f35b34801561027b57600080fd5b5061029660048036038101906102919190611614565b61079b565b005b60606000808054806020026020016040519081016040528092919081815260200182805480156102e757602002820191906000526020600020905b8154815260200190600101908083116102d3575b505050505090506000815167ffffffffffffffff81111561030b5761030a611221565b5b60405190808252806020026020018201604052801561034457816020015b610331610eef565b8152602001906001900390816103295790505b50905060005b825181101561042a576000838281518110610368576103676116bb565b5b60200260200101519050600260008281526020019081526020016000206040518060600160405290816000820160009054906101000a900473ffffffffffffffffffffffffffffffffffffffff1673ffffffffffffffffffffffffffffffffffffffff1673ffffffffffffffffffffffffffffffffffffffff1681526020016001820154815260200160028201548152505083838151811061040d5761040c6116bb565b5b6020026020010181905250508061042390611719565b905061034a565b50809250505090565b60003411610476576040517f08c379a000000000000000000000000000000000000000000000000000000000815260040161046d906117be565b60405180910390fd5b600073ffffffffffffffffffffffffffffffffffffffff168373ffffffffffffffffffffffffffffffffffffffff16036104e5576040517f08c379a00000000000000000000000000000000000000000000000000000000081526004016104dc9061182a565b60405180910390fd5b60405180606001604052808473ffffffffffffffffffffffffffffffffffffffff168152602001838152602001428152506002600086815260200190815260200160002060008201518160000160006101000a81548173ffffffffffffffffffffffffffffffffffffffff021916908373ffffffffffffffffffffffffffffffffffffffff1602179055506020820151816001015560408201518160020155905050600084908060018154018082558091505060019003906000526020600020016000909190919091505560006105ba61069a565b90806001815401808255809150506001900390600052602060002001600090919091909150556105e981610a27565b50505050565b60006106036105fe848461060b565b610a31565b905092915050565b600030838360405160200161062293929190611868565b60405160208183030381529060405280519060200120905092915050565b60008061064d85856105ef565b90508373ffffffffffffffffffffffffffffffffffffffff166106798483610a6190919063ffffffff16565b73ffffffffffffffffffffffffffffffffffffffff16149150509392505050565b60006040516020016106ab906118eb565b60405160208183030381529060405280519060200120905090565b6000610716838380806020026020016040519081016040528093929190818152602001838360200280828437600081840152601f19601f8201169050808301925050505050505060015486610a88565b90509392505050565b6000818154811061072f57600080fd5b906000526020600020016000915090505481565b6060600080548060200260200160405190810160405280929190818152602001828054801561079157602002820191906000526020600020905b81548152602001906001019080831161077d575b5050505050905090565b600073ffffffffffffffffffffffffffffffffffffffff168673ffffffffffffffffffffffffffffffffffffffff160361080a576040517f08c379a000000000000000000000000000000000000000000000000000000000815260040161080190611957565b60405180910390fd5b6000610e1060026000888152602001908152602001600020600201546108309190611977565b905060006002600088815260200190815260200160002060010154905060006002600089815260200190815260200160002060000160009054906101000a900473ffffffffffffffffffffffffffffffffffffffff16905060006108d983838a8a8080601f016020809104026020016040519081016040528093929190818152602001838380828437600081840152601f19601f82011690508083019250505050505050610640565b905060006108e88a88886106c6565b90508161092a576040517f08c379a000000000000000000000000000000000000000000000000000000000815260040161092190611a19565b60405180910390fd5b8061096a576040517f08c379a000000000000000000000000000000000000000000000000000000000815260040161096190611a85565b60405180910390fd5b6000808c73ffffffffffffffffffffffffffffffffffffffff168660405161099190611ad6565b60006040518083038185875af1925050503d80600081146109ce576040519150601f19603f3d011682016040523d82523d6000602084013e6109d3565b606091505b509150915081610a18576040517f08c379a0000000000000000000000000000000000000000000000000000000008152600401610a0f90611b37565b60405180910390fd5b50505050505050505050505050565b8060018190555050565b600081604051602001610a449190611bcf565b604051602081830303815290604052805190602001209050919050565b6000806000610a708585610a9f565b91509150610a7d81610b20565b819250505092915050565b600082610a958584610cec565b1490509392505050565b6000806041835103610ae05760008060006020860151925060408601519150606086015160001a9050610ad487828585610d42565b94509450505050610b19565b6040835103610b10576000806020850151915060408501519050610b05868383610e4e565b935093505050610b19565b60006002915091505b9250929050565b60006004811115610b3457610b33611bf5565b5b816004811115610b4757610b46611bf5565b5b0315610ce95760016004811115610b6157610b60611bf5565b5b816004811115610b7457610b73611bf5565b5b03610bb4576040517f08c379a0000000000000000000000000000000000000000000000000000000008152600401610bab90611c70565b60405180910390fd5b60026004811115610bc857610bc7611bf5565b5b816004811115610bdb57610bda611bf5565b5b03610c1b576040517f08c379a0000000000000000000000000000000000000000000000000000000008152600401610c1290611cdc565b60405180910390fd5b60036004811115610c2f57610c2e611bf5565b5b816004811115610c4257610c41611bf5565b5b03610c82576040517f08c379a0000000000000000000000000000000000000000000000000000000008152600401610c7990611d6e565b60405180910390fd5b600480811115610c9557610c94611bf5565b5b816004811115610ca857610ca7611bf5565b5b03610ce8576040517f08c379a0000000000000000000000000000000000000000000000000000000008152600401610cdf90611e00565b60405180910390fd5b5b50565b60008082905060005b8451811015610d3757610d2282868381518110610d1557610d146116bb565b5b6020026020010151610ead565b91508080610d2f90611719565b915050610cf5565b508091505092915050565b6000807f7fffffffffffffffffffffffffffffff5d576e7357a4501ddfe92f46681b20a08360001c1115610d7d576000600391509150610e45565b601b8560ff1614158015610d955750601c8560ff1614155b15610da7576000600491509150610e45565b600060018787878760405160008152602001604052604051610dcc9493929190611e3c565b6020604051602081039080840390855afa158015610dee573d6000803e3d6000fd5b505050602060405103519050600073ffffffffffffffffffffffffffffffffffffffff168173ffffffffffffffffffffffffffffffffffffffff1603610e3c57600060019250925050610e45565b80600092509250505b94509492505050565b60008060007f7fffffffffffffffffffffffffffffffffffffffffffffffffffffffffffffff60001b841690506000601b60ff8660001c901c610e919190611977565b9050610e9f87828885610d42565b935093505050935093915050565b6000818310610ec557610ec08284610ed8565b610ed0565b610ecf8383610ed8565b5b905092915050565b600082600052816020526040600020905092915050565b6040518060600160405280600073ffffffffffffffffffffffffffffffffffffffff16815260200160008152602001600081525090565b600081519050919050565b600082825260208201905092915050565b6000819050602082019050919050565b600073ffffffffffffffffffffffffffffffffffffffff82169050919050565b6000610f7d82610f52565b9050919050565b610f8d81610f72565b82525050565b6000819050919050565b610fa681610f93565b82525050565b606082016000820151610fc26000850182610f84565b506020820151610fd56020850182610f9d565b506040820151610fe86040850182610f9d565b50505050565b6000610ffa8383610fac565b60608301905092915050565b6000602082019050919050565b600061101e82610f26565b6110288185610f31565b935061103383610f42565b8060005b8381101561106457815161104b8882610fee565b975061105683611006565b925050600181019050611037565b5085935050505092915050565b6000602082019050818103600083015261108b8184611013565b905092915050565b6000604051905090565b600080fd5b600080fd5b6000819050919050565b6110ba816110a7565b81146110c557600080fd5b50565b6000813590506110d7816110b1565b92915050565b6110e681610f72565b81146110f157600080fd5b50565b600081359050611103816110dd565b92915050565b61111281610f93565b811461111d57600080fd5b50565b60008135905061112f81611109565b92915050565b6000806000806080858703121561114f5761114e61109d565b5b600061115d878288016110c8565b945050602061116e878288016110f4565b935050604061117f87828801611120565b9250506060611190878288016110c8565b91505092959194509250565b600080604083850312156111b3576111b261109d565b5b60006111c185828601611120565b92505060206111d2858286016110f4565b9150509250929050565b6111e5816110a7565b82525050565b600060208201905061120060008301846111dc565b92915050565b600080fd5b600080fd5b6000601f19601f8301169050919050565b7f4e487b7100000000000000000000000000000000000000000000000000000000600052604160045260246000fd5b61125982611210565b810181811067ffffffffffffffff8211171561127857611277611221565b5b80604052505050565b600061128b611093565b90506112978282611250565b919050565b600067ffffffffffffffff8211156112b7576112b6611221565b5b6112c082611210565b9050602081019050919050565b82818337600083830152505050565b60006112ef6112ea8461129c565b611281565b90508281526020810184848401111561130b5761130a61120b565b5b6113168482856112cd565b509392505050565b600082601f83011261133357611332611206565b5b81356113438482602086016112dc565b91505092915050565b6000806000606084860312156113655761136461109d565b5b600061137386828701611120565b9350506020611384868287016110f4565b925050604084013567ffffffffffffffff8111156113a5576113a46110a2565b5b6113b18682870161131e565b9150509250925092565b60008115159050919050565b6113d0816113bb565b82525050565b60006020820190506113eb60008301846113c7565b92915050565b600080fd5b600080fd5b60008083601f84011261141157611410611206565b5b8235905067ffffffffffffffff81111561142e5761142d6113f1565b5b60208301915083602082028301111561144a576114496113f6565b5b9250929050565b60008060006040848603121561146a5761146961109d565b5b6000611478868287016110c8565b935050602084013567ffffffffffffffff811115611499576114986110a2565b5b6114a5868287016113fb565b92509250509250925092565b6000602082840312156114c7576114c661109d565b5b60006114d584828501611120565b91505092915050565b600081519050919050565b600082825260208201905092915050565b6000819050602082019050919050565b611513816110a7565b82525050565b6000611525838361150a565b60208301905092915050565b6000602082019050919050565b6000611549826114de565b61155381856114e9565b935061155e836114fa565b8060005b8381101561158f5781516115768882611519565b975061158183611531565b925050600181019050611562565b5085935050505092915050565b600060208201905081810360008301526115b6818461153e565b905092915050565b60008083601f8401126115d4576115d3611206565b5b8235905067ffffffffffffffff8111156115f1576115f06113f1565b5b60208301915083600182028301111561160d5761160c6113f6565b5b9250929050565b600080600080600080608087890312156116315761163061109d565b5b600061163f89828a016110f4565b965050602061165089828a016110c8565b955050604087013567ffffffffffffffff811115611671576116706110a2565b5b61167d89828a016115be565b9450945050606087013567ffffffffffffffff8111156116a05761169f6110a2565b5b6116ac89828a016113fb565b92509250509295509295509295565b7f4e487b7100000000000000000000000000000000000000000000000000000000600052603260045260246000fd5b7f4e487b7100000000000000000000000000000000000000000000000000000000600052601160045260246000fd5b600061172482610f93565b91507fffffffffffffffffffffffffffffffffffffffffffffffffffffffffffffffff8203611756576117556116ea565b5b600182019050919050565b600082825260208201905092915050565b7f65746865722073656e74203c2030000000000000000000000000000000000000600082015250565b60006117a8600e83611761565b91506117b382611772565b602082019050919050565b600060208201905081810360008301526117d78161179b565b9050919050565b7f73656e646572203d3d207a65726f206164647265737300000000000000000000600082015250565b6000611814601683611761565b915061181f826117de565b602082019050919050565b6000602082019050818103600083015261184381611807565b9050919050565b61185381610f72565b82525050565b61186281610f93565b82525050565b600060608201905061187d600083018661184a565b61188a6020830185611859565b611897604083018461184a565b949350505050565b7f487572726963616e204361736800000000000000000000000000000000000000600082015250565b60006118d5600d83611761565b91506118e08261189f565b602082019050919050565b60006020820190508181036000830152611904816118c8565b9050919050565b7f726563697069656e74203d3d207a65726f206164647265737300000000000000600082015250565b6000611941601983611761565b915061194c8261190b565b602082019050919050565b6000602082019050818103600083015261197081611934565b9050919050565b600061198282610f93565b915061198d83610f93565b9250827fffffffffffffffffffffffffffffffffffffffffffffffffffffffffffffffff038211156119c2576119c16116ea565b5b828201905092915050565b7f5369676e61747572652064656e69656400000000000000000000000000000000600082015250565b6000611a03601083611761565b9150611a0e826119cd565b602082019050919050565b60006020820190508181036000830152611a32816119f6565b9050919050565b7f5068726173652064656e69656400000000000000000000000000000000000000600082015250565b6000611a6f600d83611761565b9150611a7a82611a39565b602082019050919050565b60006020820190508181036000830152611a9e81611a62565b9050919050565b600081905092915050565b50565b6000611ac0600083611aa5565b9150611acb82611ab0565b600082019050919050565b6000611ae182611ab3565b9150819050919050565b7f4574686572206e6f742073656e74000000000000000000000000000000000000600082015250565b6000611b21600e83611761565b9150611b2c82611aeb565b602082019050919050565b60006020820190508181036000830152611b5081611b14565b9050919050565b600081905092915050565b7f19457468657265756d205369676e6564204d6573736167653a0a333200000000600082015250565b6000611b98601c83611b57565b9150611ba382611b62565b601c82019050919050565b6000819050919050565b611bc9611bc4826110a7565b611bae565b82525050565b6000611bda82611b8b565b9150611be68284611bb8565b60208201915081905092915050565b7f4e487b7100000000000000000000000000000000000000000000000000000000600052602160045260246000fd5b7f45434453413a20696e76616c6964207369676e61747572650000000000000000600082015250565b6000611c5a601883611761565b9150611c6582611c24565b602082019050919050565b60006020820190508181036000830152611c8981611c4d565b9050919050565b7f45434453413a20696e76616c6964207369676e6174757265206c656e67746800600082015250565b6000611cc6601f83611761565b9150611cd182611c90565b602082019050919050565b60006020820190508181036000830152611cf581611cb9565b9050919050565b7f45434453413a20696e76616c6964207369676e6174757265202773272076616c60008201527f7565000000000000000000000000000000000000000000000000000000000000602082015250565b6000611d58602283611761565b9150611d6382611cfc565b604082019050919050565b60006020820190508181036000830152611d8781611d4b565b9050919050565b7f45434453413a20696e76616c6964207369676e6174757265202776272076616c60008201527f7565000000000000000000000000000000000000000000000000000000000000602082015250565b6000611dea602283611761565b9150611df582611d8e565b604082019050919050565b60006020820190508181036000830152611e1981611ddd565b9050919050565b600060ff82169050919050565b611e3681611e20565b82525050565b6000608082019050611e5160008301876111dc565b611e5e6020830186611e2d565b611e6b60408301856111dc565b611e7860608301846111dc565b9594505050505056fea264697066735822122030516c304c84ab4be82d53b11b880568342c9d2b837c813d993c165008d971f564736f6c634300080e0033",
  "linkReferences": {},
  "deployedLinkReferences": {}
}